:100000000C948F000C94B7000C94B7000C94B700BC
:100010000C94B7000C94B7000C94B7000C94B70084
:100020000C94B7000C94B7000C94B7000C94B70074
:100030000C94B7000C94B7000C94B7000C94B70064
:100040000C9494040C94B7000C94D0060C94010703
:100050000C94B7000C94B7000C94B7000C94B70044
:100060000C94B7000C94B70008000000BE9224491D
:10007000123EABAAAA2ABECDCCCC4C3E00000080DA
:10008000BEABAAAAAA3E00000000BF000000803F4D
:100090000000000000084178D3BB4387D1133D190D
:1000A0000E3CC3BD4282AD2B3E68EC8276BED98F3A
:1000B000E1A93E4C80EFFFBE01C4FF7F3F0000007E
:1000C000000000000000240027002A0000000000BB
:1000D000250028002B000000000023002600290036
:1000E00004040404040404040202020202020303DE
:1000F00003030303010204081020408001020408E6
:100100001020010204081020000000070002010076
:10011000000304060000000000000000C6071124D0
:100120001FBECFEFD8E0DEBFCDBF11E0A0E0B1E051
:10013000E8E9F8E102C005900D92A437B107D9F7BC
:1001400012E0A4E7B1E001C01D92A833B107E1F7C6
:1001500011E0CEE1D1E004C02297FE010E94460CDE
:10016000CC31D107C9F70E9403080C94B9000C9454
:100170000000F8940C944A0CAF92BF92CF92DF9299
:10018000EF92FF920F931F932FEF33E0281B390B51
:10019000442737FD4095542F60E070E48CE990E0EF
:1001A0000E94290C2051374240405040CA01B901F9
:1001B0000E94320A0E94EB0A7B018C0123E73FE791
:1001C00045E759E30E942B0B2BEE3FEF43E95AE33F
:1001D0000E942F095B016C01C801B70129E537E4D2
:1001E0004CEB53E30E942B0BA80197010E942B0BB1
:1001F000A80197010E942B0B9B01AC01C601B50120
:100200000E942F09562F472F382F292F60E070E0CA
:1002100080E89FE3DA01F9012B2F3A2F4F2F5E2F51
:100220000E94970923E333E948E853E40E942E092A
:1002300020E030E040E151E40E942B0B20E030E070
:1002400040EA50E40E94970920E030E040E052E4A8
:100250000E942F091F910F91FF90EF90DF90CF9098
:10026000BF90AF9008956F927F928F929F92AF92BE
:10027000BF92CF92DF92EF92FF920F931F93962E31
:10028000872E782E692ED22EC32EB42EA52EA40131
:100290009301652F742F832F922FD601F5012B2FF9
:1002A0003A2F4F2F5E2F0E94E20A181634F4940161
:1002B000C3014601350169015C01A4019301652F69
:1002C000782D832F962D2E2D3F2D402F512F0E94BC
:1002D000E20A181624F4E92CF82C072D162DA60195
:1002E0009501652F7C2D832F9A2D2E2D3F2D402F8C
:1002F000512F0E94E20A181624F4DE2CCF2CB02EC7
:10030000A12EA6019501652F7C2D832F9A2D1F917B
:100310000F91FF90EF90DF90CF90BF90AF909F90A4
:100320008F907F906F900895DF92EF92FF920F93DE
:100330001F93DF93CF93CDB7DEB72C970FB6F8940A
:10034000DEBF0FBECDBFD82E0E94730464E670E0FE
:1003500080E090E00E9402057E010894E11CF11CFF
:100360008E01035F1F4F8D2D0E9473040E94BC00FD
:10037000F70161937193819391937F0164E170E040
:1003800080E090E00E940205E016F10661F76981C5
:100390007A818B819C812D813E814F815885E984B2
:1003A000FA840B851C850E9433012C960FB6F894B5
:1003B000DEBF0FBECDBFCF91DF911F910F91FF9098
:1003C000EF90DF9008958BE060E00E94B5058AE031
:1003D00061E00E94B50508958BE061E00E94B505DB
:1003E0008AE060E00E94B50508958BE060E00E941D
:1003F000B5058AE060E00E94B50508958091860108
:100400009091870101969093870180938601609176
:100410006001709161010E94F40B009739F481E052
:1004200090916201911180E080936201809162015C
:10043000882319F00E94E30108950E94F5010895B0
:100440008F929F92AF92BF92CF92DF92EF92FF92E4
:100450000F931F93CF93DF9380E090E00E9494016D
:100460006093740170937501809376019093770186
:1004700081E090E00E94940160937801709379018B
:1004800080937A0190937B0182E090E00E94940136
:1004900060937C0170937D0180937E0190937F0136
:1004A00080905C0190905D01E401CC0FDD1FCC0FCA
:1004B000DD1FFE01EC58FE4FC080D180E280F3804A
:1004C000FE01EC5BFE4FC701B60120813181428104
:1004D00053810E949309182F111F1127111FC05B10
:1004E000DE4FC701B601288139814A815B810E94B4
:1004F000E20A1816C4F1113009F446C0C0E0D0E099
:10050000EE24FF2410E000E0E814F90411F1FE01EC
:10051000EC58FE4FA080B180C280D380FE01E05B2A
:10052000FE4FC601B50120813181428153810E9475
:10053000E20A18160CF401E0FE01EC5BFE4FC60166
:10054000B50120813181428153810E94930987FD49
:1005500011E00894E11CF11C249683E0E816F104F4
:1005600099F6013021F4113009F061C026C0113034
:1005700021F50AC001969093830180938201109225
:100580008101109280012DC080918401909185019C
:1005900020915E0130915F01281739072CF00196F8
:1005A00090938501809384011092810110928001C3
:1005B000109283011092820118C080918001909165
:1005C000810120915E0130915F01281739072CF0DD
:1005D0000196909381018093800110928301109283
:1005E0008201109285011092840180915E019091A8
:1005F0005F0120918001309181012817390719F49A
:100600000E94F50121C020918401309185012817B5
:10061000390719F40E94FE0117C020918201309120
:1006200083012817390781F40E94EC010DC08091E5
:1006300082019091830120915E0130915F01281722
:1006400039070CF097CF9BCFDF91CF911F910F917E
:10065000FF90EF90DF90CF90BF90AF909F908F90E2
:1006600008957F928F929F92AF92BF92CF92DF9226
:10067000EF92FF920F931F93CF93DF936B017C0157
:10068000142F0E94FF099B01AC01EB0189E192E06C
:10069000B9014AE050E00E942409112309F475C011
:1006A00089E192E060E071E00E944D08712E7A9439
:1006B00021E0822E912CA12CB12CC501B4012AE09D
:1006C00030E040E050E00E94C10B4B015C01115052
:1006D000A1F7C701B60120E030E0A9010E94E20ABB
:1006E0009E01442737FD4095542F87FD09C0CA015C
:1006F000B9010E94320A9B01AC01C701B60106C0D4
:10070000CA01B9010E94320AA70196010E942E096E
:100710006B017C01C501B4010E94300A9B01AC0150
:10072000C701B6010E942B0B0E94040A062FF72E68
:10073000C82E192F762F272F3F2D4C2D512F9AE0A1
:10074000892E912CA12CB12C01C07A94CA01B90137
:10075000A50194010E94070C2115310541055105A1
:10076000A1F707C089E192E062E071E00E944D08C4
:100770007A947720B9F789E192E0402F5F2D6C2DB4
:10078000712F2AE030E00E94DA08DF91CF911F91AB
:100790000F91FF90EF90DF90CF90BF90AF909F9020
:1007A0008F907F900895CF93DF93C9E1D2E0CE017F
:1007B00064E071E00E944D086091740170917501D0
:1007C000809176019091770142E00E943103CE0141
:1007D0006CE071E00E944D0860917C0170917D0198
:1007E00080917E0190917F0142E00E943103CE0111
:1007F00066E171E00E944D08609178017091790185
:1008000080917A0190917B0142E00E943103CE01F8
:100810006FE171E00E944D088AE00E94ED05BC0185
:10082000CE014AE050E00E942409CE016BE271E063
:100830000E944D088BE00E94ED05BC01CE014AE00C
:1008400050E00E942409CE0167E371E00E944D0848
:100850006091820170918301CE014AE050E00E94D4
:100860002409CE016BE371E00E944D086091840180
:1008700070918501CE014AE050E00E942409CE012A
:100880006FE371E00E944D086091800170918101D9
:10089000CE014AE050E00E942409CE0163E471E0F9
:1008A0000E946D08DF91CF91089589E192E040E8C0
:1008B00055E260E070E00E9448078AE061E00E9433
:1008C00091058BE061E00E9491050E94F501089579
:1008D0000E9420020E94D30360EA7FE080E090E063
:1008E0000E94020508958E3008F08E508770909116
:1008F00063019295990F990F907C982B90937C00AF
:1009000080917A00806480937A0080917A0086FDDD
:10091000FCCF2091780030917900932F80E030E077
:10092000282B392BC90108951F920F920FB60F92F1
:1009300011242F933F938F939F93AF93BF938091F5
:100940008C0190918D01A0918E01B0918F01309119
:1009500090010196A11DB11D232F2D5F2D3720F091
:100960002D570196A11DB11D2093900180938C01FC
:1009700090938D01A0938E01B0938F018091880197
:1009800090918901A0918A01B0918B010196A11DDE
:10099000B11D8093880190938901A0938A01B0933F
:1009A0008B01BF91AF919F918F913F912F910F90AC
:1009B0000FBE0F901F9018959FB7F8942091880153
:1009C0003091890140918A0150918B0186B5A89B95
:1009D00006C08F3F21F02F5F3F4F4F4F5F4F9FBFAC
:1009E000542F432F322F2227280F311D411D511D17
:1009F00082E0220F331F441F551F8A95D1F7B9019A
:100A0000CA010895EF92FF920F931F93CF93DF9344
:100A10007B018C010E94DC04EB010FC00E94DC040E
:100A20006C1B7D0B83E0683E780738F00894E10882
:100A3000F10801091109C851DC4FE114F104010565
:100A4000110561F7DF91CF911F910F91FF90EF900A
:100A50000895789484B5826084BD84B5816084BD36
:100A600085B5826085BD85B5816085BDEEE6F0E027
:100A7000808181608083E1E8F0E010828081826083
:100A80008083808181608083E0E8F0E08081816004
:100A90008083E1EBF0E0808184608083E0EBF0E034
:100AA000808181608083EAE7F0E0808184608083D8
:100AB0008081826080838081816080838081806882
:100AC00080831092C1000895833071F0843028F43F
:100AD0008130A1F0823021F514C08630B1F087302A
:100AE000D1F08430E9F404C0809180008F7703C096
:100AF000809180008F7D80938000089584B58F77EA
:100B000002C084B58F7D84BD08958091B0008F7739
:100B10008093B00008958091B0008F7D8093B000E5
:100B2000089590E0FC01EC50FF4F2491FC01E0524D
:100B3000FF4FE491EE23C1F0F0E0EE0FFF1FEE5304
:100B4000FF4F85919491DC01662341F49FB7F8949F
:100B50008C91209582238C939FBF08959FB7F89422
:100B60008C91822B8C939FBF08950F931F93DF93DB
:100B7000CF930F92CDB7DEB7282F30E0F901E85FB1
:100B8000FE4F8491F901EC50FF4F149120523F4FDA
:100B9000F90104910023D9F0882321F069830E9490
:100BA00064056981E02FF0E0EE0FFF1FE453FF4F73
:100BB00085919491DC019FB7F894662321F48C9180
:100BC0001095812302C08C91812B8C939FBF0F9035
:100BD000CF91DF911F910F9108950F931F93282FAD
:100BE00030E0F901E85FFE4F8491F901EC50FF4FCE
:100BF000049120523F4FF9011491112391F0882361
:100C000011F00E946405E12FF0E0EE0FFF1FEA52A1
:100C1000FF4F85919491DC018C91802321E030E09D
:100C200011F420E030E0C9011F910F910895FC01FB
:100C300084859585FC01E05CFF4F208131818E5BCE
:100C40009F4FFC0180819181281B390B2F733070DD
:100C5000C9010895FC0184859585FC01E05CFF4F86
:100C600040815181FC01EE5BFF4F208131814217B1
:100C7000530741F00190F081E02DE80FF91F20812A
:100C800030E002C02FEF3FEFC9010895FC018485D9
:100C90009585FC01E05CFF4F40815181FC01EE5BDA
:100CA000FF4F208131814217530771F0A081B1813C
:100CB000A80FB91F2C918081918101968F7390703C
:100CC0009183808330E002C02FEF3FEFC901089588
:100CD000DC011E968D919C911F97FC01E05CFF4FFB
:100CE0008E5B9F4F40815181DC012D913C9111978A
:100CF00042175307B9F708951F93FC01162F268555
:100D00003785D901A05CBF4F8D919C91019660E41D
:100D100070E00E94F40BD901AE5BBF4F4D915C9126
:100D2000119784179507D1F3D901A05CBF4F0D909F
:100D3000BC91A02DA20FB31F1C93A685B785A05C04
:100D4000BF4F11969C938E93A689B7892C9181E011
:100D500090E0058C02C0880F991F0A94E2F7282BB7
:100D60002C9381E090E01F910895FB01E05CFF4F20
:100D7000208131812F5F3F4F2F733070DB01AE5BDD
:100D8000BF4F4D915C9111972417350739F0A08121
:100D9000B181A60FB71F8C933183208308950895E6
:100DA0001F920F920FB60F9211242F933F934F93E0
:100DB0005F936F937F938F939F93AF93BF93EF93C3
:100DC000FF938091C60061E971E00E94B506FF9132
:100DD000EF91BF91AF919F918F917F916F915F91B3
:100DE0004F913F912F910F900FBE0F901F9018952C
:100DF00089E192E00E941706009711F00E94CF0649
:100E000008951F920F920FB60F9211242F933F93C4
:100E10005F936F937F938F939F93AF93BF93EF9362
:100E2000FF93209115023091160280911702909144
:100E300018022817390731F48091C1008F7D809303
:100E4000C10016C0E0911702F0911802EB52FE4F5C
:100E500020818091170290911802019660E470E061
:100E60000E94F40B90931802809317022093C600FF
:100E7000FF91EF91BF91AF919F918F917F916F9172
:100E80005F913F912F910F900FBE0F901F9018957B
:100E9000DF92EF92FF920F931F93CF93DF93EC01BA
:100EA0007A018B01DD24D394403081EE580780E035
:100EB000680780E0780749F4DD24EC89FD89108219
:100EC00060E874E88EE190E00FC0EC89FD8981E074
:100ED00090E00E8C02C0880F991F0A94E2F780837D
:100EE00060E079E08DE390E0A80197010E94070C93
:100EF00021503040404050405695479537952795B2
:100F000080E12030380710F0DD20B1F6E889F9895A
:100F10003083EA89FB892083EE89FF89408181E063
:100F200090E09C010A8C02C0220F331F0A94E2F762
:100F3000422B4083EE89FF8940819C010B8C02C0CB
:100F4000220F331F0A94E2F7422B4083EE89FF8978
:100F500040819C010C8C02C0220F331F0A94E2F7DF
:100F6000422B4083EE89FF8920810D8C02C0880FBF
:100F7000991F0A94E2F7809582238083DF91CF91B5
:100F80001F910F91FF90EF90DF90089510921C0237
:100F900010921B0288EE93E0A0E0B0E080931D0267
:100FA00090931E02A0931F02B0932002EBE1F2E0A7
:100FB00088E691E09293829381E991E09587848716
:100FC00085ED91E09787868785EC90E0918B808B0B
:100FD00084EC90E0938B828B80EC90E0958B848BFB
:100FE00081EC90E0978B868B86EC90E0918F808FE0
:100FF00084E0828F83E0838F87E0848F85E0858F14
:1010000081E0868F0895CF93DF930E9429050E9487
:101010005504C8EFD6E00E9468042097E1F30E94CF
:10102000F806F9CFCF92DF92EF92FF920F931F93C2
:10103000CF93DF936C017B018A01C0E0D0E00FC049
:10104000D7016D917D01D601ED91FC910190F08168
:10105000E02DC6010995C80FD91F01501040011598
:10106000110571F7CE01DF91CF911F910F91FF9084
:10107000EF90DF90CF900895DB010D900020E9F70D
:10108000AD0141505040461B570BDC01ED91FC91E6
:101090000280F381E02D099508950E943C0808958F
:1010A000DC01ED91FC910190F081E02D099508950E
:1010B0000F931F93CF93DF93EC016DE00E945008D4
:1010C0008C01CE016AE00E945008080F191FC80168
:1010D000DF91CF911F910F9108950F931F93CF939D
:1010E000DF93EC010E943C088C01CE010E9458085D
:1010F000080F191FC801DF91CF911F910F9108951B
:101100008F929F92AF92BF92CF92DF92EF92FF9217
:101110000F931F93DF93CF93CDB7DEB7A1970FB691
:10112000F894DEBF0FBECDBF6C01042FE52FCB01BD
:10113000122F19A2223008F41AE021E2E22EF12C3B
:10114000EC0EFD1E812E9924AA24BB2403C0022F7D
:10115000E32FCA01602F7E2FA50194010E94070C86
:10116000129F802D1124081B0894E108F1080A3011
:1011700010F4005D01C0095CF70100832115310501
:101180004105510521F7C601B7010E943C08A1960F
:101190000FB6F894DEBF0FBECDBFCF91DF911F9188
:1011A0000F91FF90EF90DF90CF90BF90AF909F9006
:1011B0008F9008952115310549F4DC01ED91FC91E2
:1011C0000190F081E02D642F099508950E94800818
:1011D0000895CF92DF92EF92FF920F931F93CF93D8
:1011E000DF93EC017A018B012115310541F4E8818F
:1011F000F9810190F081E02D642F09951AC02A3001
:101200003105A9F477FF12C06DE20E9450086C010D
:1012100044275527BA014E195F09600B710BCE01A7
:101220002AE00E948008C80ED91E04C02AE00E944D
:1012300080086C01C601DF91CF911F910F91FF9043
:10124000EF90DF90CF9008959A01FB01AF016627E0
:1012500057FD6095762F0E94E90808955058BB27E6
:10126000AA270ED075C166D130F06BD120F031F4D1
:101270009F3F11F41EF45BC10EF4E095E7FB51C1F2
:10128000E92F77D180F3BA176207730784079507B0
:1012900018F071F49EF58FC10EF4E0950B2EBA2F65
:1012A000A02D0B01B90190010C01CA01A00111246C
:1012B000FF27591B99F0593F50F4503E68F11A1618
:1012C000F040A22F232F342F4427585FF3CF4695A9
:1012D00037952795A795F0405395C9F77EF41F16CB
:1012E000BA0B620B730B840BBAF09150A1F0FF0F95
:1012F000BB1F661F771F881FC2F70EC0BA0F621F81
:10130000731F841F48F4879577956795B795F79570
:101310009E3F08F0B3CF9395880F08F09927EE0F02
:10132000979587950895D9D008F481E008950CD059
:101330000FC107D140F0FED030F021F45F3F19F02B
:10134000F0C0511139C1F3C014D198F39923C9F3F6
:101350005523B1F3951B550BBB27AA2762177307BB
:10136000840738F09F5F5F4F220F331F441FAA1F6F
:10137000A9F333D00E2E3AF0E0E830D0915050402F
:10138000E695001CCAF729D0FE2F27D0660F771FDD
:10139000881FBB1F261737074807AB07B0E809F0BF
:1013A000BB0B802DBF01FF2793585F4F2AF09E3F54
:1013B000510568F0B6C000C15F3FECF3983EDCF326
:1013C000869577956795B795F7959F5FC9F7880FCD
:1013D000911D9695879597F90895E1E0660F771F1F
:1013E000881FBB1F621773078407BA0720F0621BB0
:1013F000730B840BBA0BEE1F88F7E095089504D0A9
:101400006894B111D9C00895BCD088F09F5790F06E
:10141000B92F9927B751A0F0D1F0660F771F881F19
:10142000991F1AF0BA95C9F712C0B13081F0C3D034
:10143000B1E00895C0C0672F782F8827B85F39F0D2
:10144000B93FCCF3869577956795B395D9F73EF478
:1014500090958095709561957F4F8F4F9F4F089520
:10146000E89409C097FB3EF490958095709561953E
:101470007F4F8F4F9F4F9923A9F0F92F96E9BB27F4
:101480009395F695879577956795B795F111F8CF70
:10149000FAF4BB0F11F460FF1BC06F5F7F4F8F4FDB
:1014A0009F4F16C0882311F096E911C0772321F0D1
:1014B0009EE8872F762F05C0662371F096E8862F69
:1014C00070E060E02AF09A95660F771F881FDAF7C0
:1014D000880F9695879597F90895990F0008550FED
:1014E000AA0BE0E8FEEF16161706E807F907C0F0AA
:1014F00012161306E407F50798F0621B730B840BB2
:10150000950B39F40A2661F0232B242B252B21F48B
:1015100008950A2609F4A140A6958FEF811D811D2B
:10152000089597F99F6780E870E060E008959FEF65
:1015300080EC089500240A9416161706180609066A
:10154000089500240A941216130614060506089539
:10155000092E0394000C11F4882352F0BB0F40F4C1
:10156000BF2B11F460FF04C06F5F7F4F8F4F9F4F01
:10157000089557FD9058440F551F59F05F3F71F083
:101580004795880F97FB991F61F09F3F79F08795EA
:101590000895121613061406551FF2CF4695F1DF73
:1015A00008C0161617061806991FF1CF8695710503
:1015B000610508940895E894BB2766277727CB0137
:1015C00097F908958ADF08F48FEF08950EF0A6C00A
:1015D000AECF6894A6CFD5DFC8F39923D1F3C6F375
:1015E000DF93CF931F930F93FF92C92FDD2788239B
:1015F0002AF02197660F771F881FDAF720E030E086
:1016000040E85FEB9FE3883920F0803E30F0219680
:101610008F7725DEE8E6F0E003C021DEE5E9F0E0C3
:101620008BD08B01BE01EC01FB2E6F5771097595B4
:10163000771F880B990B16DF28E132E741E35FE360
:1016400016D0AF2D9801AE01FF900F911F91CF9151
:10165000DF9116DE7DCF0BD07BCF6CDF28F071DF02
:1016600018F0952309F05DCF62CF1124A5CF81DF5B
:10167000A0F3959FD1F3950F50E0551F629FF001A5
:10168000729FBB27F00DB11D639FAA27F00DB11DFE
:10169000AA1F649F6627B00DA11D661F829F222787
:1016A000B00DA11D621F739FB00DA11D621F839F0E
:1016B000A00D611D221F749F3327A00D611D231FE4
:1016C000849F600D211D822F762F6A2F11249F5732
:1016D00050408AF0E1F088234AF0EE0FFF1FBB1F55
:1016E000661F771F881F91505040A9F79E3F5105F4
:1016F00070F017CF61CF5F3FECF3983EDCF3869537
:1017000077956795B795F795E7959F5FC1F7FE2B9E
:10171000880F911D9695879597F908959F3F31F011
:10172000915020F4879577956795B795880F911D0F
:101730009695879597F90895DF93CF931F930F930D
:10174000FF92EF92DF927B018C01689405C0DA2E44
:10175000EF018DDFFE01E894A5912591359145912A
:101760005591AEF3EF018CDDFE019701A801DA94EB
:1017700079F7DF90EF90FF900F911F91CF91DF915C
:101780000895629FD001739FF001829FE00DF11DCB
:10179000649FE00DF11D929FF00D839FF00D749FEB
:1017A000F00D659FF00D9927729FB00DE11DF91F97
:1017B000639FB00DE11DF91FBD01CF0111240895F4
:1017C000AA1BBB1B51E107C0AA1FBB1FA617B70767
:1017D00010F0A61BB70B881F991F5A95A9F7809583
:1017E0009095BC01CD01089597FB092E07260AD0DC
:1017F00077FD04D0E5DF06D000201AF470956195DE
:101800007F4F0895F6F7909581959F4F0895A1E237
:101810001A2EAA1BBB1BFD010DC0AA1FBB1FEE1F6A
:10182000FF1FA217B307E407F50720F0A21BB30BB5
:10183000E40BF50B661F771F881F991F1A9469F731
:1018400060957095809590959B01AC01BD01CF018D
:10185000089597FB092E05260ED057FD04D0D7DF3B
:101860000AD0001C38F450954095309521953F4F93
:101870004F4F5F4F0895F6F790958095709561955D
:101880007F4F8F4F9F4F0895EE0FFF1F0590F491EC
:08189000E02D0994F894FFCF4C
:101898002E0030006672696467653A0020667265DA
:1018A800657A65723A00206C69717569643A00203E
:1018B80068656174657243746C3A00206672696485
:1018C800676543746C3A0020663A0020683A002045
:1018D800613A000000000000000084420000384225
:1018E8000000C84200008A4200004842010005008A
:1018F80005000101000000007C06120817064606D4
:041908002A0668063D
:00000001FF
